{
  "_format": "hh-sol-artifact-1",
  "contractName": "MyEpicNFT",
  "sourceName": "contracts/MyEpicNFT.sol",
  "abi": [
    {
      "inputs": [],
      "stateMutability": "nonpayable",
      "type": "constructor"
    },
    {
      "anonymous": false,
      "inputs": [
        {
          "indexed": true,
          "internalType": "address",
          "name": "owner",
          "type": "address"
        },
        {
          "indexed": true,
          "internalType": "address",
          "name": "approved",
          "type": "address"
        },
        {
          "indexed": true,
          "internalType": "uint256",
          "name": "tokenId",
          "type": "uint256"
        }
      ],
      "name": "Approval",
      "type": "event"
    },
    {
      "anonymous": false,
      "inputs": [
        {
          "indexed": true,
          "internalType": "address",
          "name": "owner",
          "type": "address"
        },
        {
          "indexed": true,
          "internalType": "address",
          "name": "operator",
          "type": "address"
        },
        {
          "indexed": false,
          "internalType": "bool",
          "name": "approved",
          "type": "bool"
        }
      ],
      "name": "ApprovalForAll",
      "type": "event"
    },
    {
      "anonymous": false,
      "inputs": [
        {
          "indexed": false,
          "internalType": "address",
          "name": "sender",
          "type": "address"
        },
        {
          "indexed": false,
          "internalType": "uint256",
          "name": "tokenId",
          "type": "uint256"
        }
      ],
      "name": "NewEpicNFTMinted",
      "type": "event"
    },
    {
      "anonymous": false,
      "inputs": [
        {
          "indexed": true,
          "internalType": "address",
          "name": "from",
          "type": "address"
        },
        {
          "indexed": true,
          "internalType": "address",
          "name": "to",
          "type": "address"
        },
        {
          "indexed": true,
          "internalType": "uint256",
          "name": "tokenId",
          "type": "uint256"
        }
      ],
      "name": "Transfer",
      "type": "event"
    },
    {
      "inputs": [
        {
          "internalType": "address",
          "name": "_nftOwner",
          "type": "address"
        }
      ],
      "name": "NFTsMetaDataByOwner",
      "outputs": [
        {
          "components": [
            {
              "internalType": "uint256",
              "name": "timestamp",
              "type": "uint256"
            },
            {
              "internalType": "uint256",
              "name": "tokenID",
              "type": "uint256"
            },
            {
              "internalType": "string",
              "name": "tokenURI",
              "type": "string"
            }
          ],
          "internalType": "struct MyEpicNFT.MetaData[]",
          "name": "",
          "type": "tuple[]"
        }
      ],
      "stateMutability": "view",
      "type": "function"
    },
    {
      "inputs": [
        {
          "internalType": "address",
          "name": "to",
          "type": "address"
        },
        {
          "internalType": "uint256",
          "name": "tokenId",
          "type": "uint256"
        }
      ],
      "name": "approve",
      "outputs": [],
      "stateMutability": "nonpayable",
      "type": "function"
    },
    {
      "inputs": [
        {
          "internalType": "address",
          "name": "owner",
          "type": "address"
        }
      ],
      "name": "balanceOf",
      "outputs": [
        {
          "internalType": "uint256",
          "name": "",
          "type": "uint256"
        }
      ],
      "stateMutability": "view",
      "type": "function"
    },
    {
      "inputs": [
        {
          "internalType": "uint256",
          "name": "tokenId",
          "type": "uint256"
        }
      ],
      "name": "getApproved",
      "outputs": [
        {
          "internalType": "address",
          "name": "",
          "type": "address"
        }
      ],
      "stateMutability": "view",
      "type": "function"
    },
    {
      "inputs": [],
      "name": "getTotalNFTsMintedSoFar",
      "outputs": [
        {
          "internalType": "uint256",
          "name": "",
          "type": "uint256"
        }
      ],
      "stateMutability": "view",
      "type": "function"
    },
    {
      "inputs": [
        {
          "internalType": "address",
          "name": "owner",
          "type": "address"
        },
        {
          "internalType": "address",
          "name": "operator",
          "type": "address"
        }
      ],
      "name": "isApprovedForAll",
      "outputs": [
        {
          "internalType": "bool",
          "name": "",
          "type": "bool"
        }
      ],
      "stateMutability": "view",
      "type": "function"
    },
    {
      "inputs": [
        {
          "internalType": "string",
          "name": "doodle",
          "type": "string"
        }
      ],
      "name": "makeAnEpicNFT",
      "outputs": [],
      "stateMutability": "nonpayable",
      "type": "function"
    },
    {
      "inputs": [],
      "name": "name",
      "outputs": [
        {
          "internalType": "string",
          "name": "",
          "type": "string"
        }
      ],
      "stateMutability": "view",
      "type": "function"
    },
    {
      "inputs": [
        {
          "internalType": "uint256",
          "name": "tokenId",
          "type": "uint256"
        }
      ],
      "name": "ownerOf",
      "outputs": [
        {
          "internalType": "address",
          "name": "",
          "type": "address"
        }
      ],
      "stateMutability": "view",
      "type": "function"
    },
    {
      "inputs": [
        {
          "internalType": "address",
          "name": "from",
          "type": "address"
        },
        {
          "internalType": "address",
          "name": "to",
          "type": "address"
        },
        {
          "internalType": "uint256",
          "name": "tokenId",
          "type": "uint256"
        }
      ],
      "name": "safeTransferFrom",
      "outputs": [],
      "stateMutability": "nonpayable",
      "type": "function"
    },
    {
      "inputs": [
        {
          "internalType": "address",
          "name": "from",
          "type": "address"
        },
        {
          "internalType": "address",
          "name": "to",
          "type": "address"
        },
        {
          "internalType": "uint256",
          "name": "tokenId",
          "type": "uint256"
        },
        {
          "internalType": "bytes",
          "name": "_data",
          "type": "bytes"
        }
      ],
      "name": "safeTransferFrom",
      "outputs": [],
      "stateMutability": "nonpayable",
      "type": "function"
    },
    {
      "inputs": [
        {
          "internalType": "address",
          "name": "operator",
          "type": "address"
        },
        {
          "internalType": "bool",
          "name": "approved",
          "type": "bool"
        }
      ],
      "name": "setApprovalForAll",
      "outputs": [],
      "stateMutability": "nonpayable",
      "type": "function"
    },
    {
      "inputs": [
        {
          "internalType": "bytes4",
          "name": "interfaceId",
          "type": "bytes4"
        }
      ],
      "name": "supportsInterface",
      "outputs": [
        {
          "internalType": "bool",
          "name": "",
          "type": "bool"
        }
      ],
      "stateMutability": "view",
      "type": "function"
    },
    {
      "inputs": [],
      "name": "symbol",
      "outputs": [
        {
          "internalType": "string",
          "name": "",
          "type": "string"
        }
      ],
      "stateMutability": "view",
      "type": "function"
    },
    {
      "inputs": [
        {
          "internalType": "uint256",
          "name": "tokenId",
          "type": "uint256"
        }
      ],
      "name": "tokenURI",
      "outputs": [
        {
          "internalType": "string",
          "name": "",
          "type": "string"
        }
      ],
      "stateMutability": "view",
      "type": "function"
    },
    {
      "inputs": [
        {
          "internalType": "address",
          "name": "from",
          "type": "address"
        },
        {
          "internalType": "address",
          "name": "to",
          "type": "address"
        },
        {
          "internalType": "uint256",
          "name": "tokenId",
          "type": "uint256"
        }
      ],
      "name": "transferFrom",
      "outputs": [],
      "stateMutability": "nonpayable",
      "type": "function"
    },
    {
      "inputs": [
        {
          "internalType": "address",
          "name": "",
          "type": "address"
        },
        {
          "internalType": "uint256",
          "name": "",
          "type": "uint256"
        }
      ],
      "name": "userNFTs",
      "outputs": [
        {
          "internalType": "uint256",
          "name": "timestamp",
          "type": "uint256"
        },
        {
          "internalType": "uint256",
          "name": "tokenID",
          "type": "uint256"
        },
        {
          "internalType": "string",
          "name": "tokenURI",
          "type": "string"
        }
      ],
      "stateMutability": "view",
      "type": "function"
    }
  ],
  "bytecode": "0x60806040523480156200001157600080fd5b506040518060400160405280600a81526020017f446f6f646c65204e4654000000000000000000000000000000000000000000008152506040518060400160405280600681526020017f444f4f444c450000000000000000000000000000000000000000000000000000815250816000908051906020019062000096929190620001eb565b508060019080519060200190620000af929190620001eb565b505050620000fd6040518060400160405280600881526020017f4e465420465457210000000000000000000000000000000000000000000000008152506200011f60201b6200104d1760201c565b6032600860006101000a81548160ff021916908360ff160217905550620003c8565b620001bf81604051602401620001369190620002dc565b6040516020818303038152906040527f41304fac000000000000000000000000000000000000000000000000000000007bffffffffffffffffffffffffffffffffffffffffffffffffffffffff19166020820180517bffffffffffffffffffffffffffffffffffffffffffffffffffffffff8381831617835250505050620001c260201b60201c565b50565b60008151905060006a636f6e736f6c652e6c6f679050602083016000808483855afa5050505050565b828054620001f99062000352565b90600052602060002090601f0160209004810192826200021d576000855562000269565b82601f106200023857805160ff191683800117855562000269565b8280016001018555821562000269579182015b82811115620002685782518255916020019190600101906200024b565b5b5090506200027891906200027c565b5090565b5b80821115620002975760008160009055506001016200027d565b5090565b6000620002a88262000300565b620002b481856200030b565b9350620002c68185602086016200031c565b620002d181620003b7565b840191505092915050565b60006020820190508181036000830152620002f881846200029b565b905092915050565b600081519050919050565b600082825260208201905092915050565b60005b838110156200033c5780820151818401526020810190506200031f565b838111156200034c576000848401525b50505050565b600060028204905060018216806200036b57607f821691505b6020821081141562000382576200038162000388565b5b50919050565b7f4e487b7100000000000000000000000000000000000000000000000000000000600052602260045260246000fd5b6000601f19601f8301169050919050565b6138a980620003d86000396000f3fe608060405234801561001057600080fd5b506004361061010b5760003560e01c806342842e0e116100a257806395d89b411161007157806395d89b41146102de578063a22cb465146102fc578063b88d4fde14610318578063c87b56dd14610334578063e985e9c5146103645761010b565b806342842e0e146102325780636352211e1461024e5780636c67a38d1461027e57806370a08231146102ae5761010b565b8063095ea7b3116100de578063095ea7b3146101ac57806323b872dd146101c8578063291c73c3146101e457806339fa8daf146102165761010b565b806301ffc9a714610110578063060475901461014057806306fdde031461015e578063081812fc1461017c575b600080fd5b61012a6004803603810190610125919061251b565b610394565b60405161013791906130a1565b60405180910390f35b610148610476565b604051610155919061331c565b60405180910390f35b610166610499565b60405161017391906130bc565b60405180910390f35b610196600480360381019061019191906125ae565b61052b565b6040516101a39190612fef565b60405180910390f35b6101c660048036038101906101c191906124df565b6105b0565b005b6101e260048036038101906101dd91906123d9565b6106c8565b005b6101fe60048036038101906101f991906124df565b610728565b60405161020d93929190613337565b60405180910390f35b610230600480360381019061022b919061256d565b6107f7565b005b61024c600480360381019061024791906123d9565b610a8f565b005b610268600480360381019061026391906125ae565b610aaf565b6040516102759190612fef565b60405180910390f35b61029860048036038101906102939190612374565b610b61565b6040516102a5919061307f565b60405180910390f35b6102c860048036038101906102c39190612374565b610ca5565b6040516102d5919061331c565b60405180910390f35b6102e6610d5d565b6040516102f391906130bc565b60405180910390f35b610316600480360381019061031191906124a3565b610def565b005b610332600480360381019061032d9190612428565b610e05565b005b61034e600480360381019061034991906125ae565b610e67565b60405161035b91906130bc565b60405180910390f35b61037e6004803603810190610379919061239d565b610fb9565b60405161038b91906130a1565b60405180910390f35b60007f80ac58cd000000000000000000000000000000000000000000000000000000007bffffffffffffffffffffffffffffffffffffffffffffffffffffffff1916827bffffffffffffffffffffffffffffffffffffffffffffffffffffffff1916148061045f57507f5b5e139f000000000000000000000000000000000000000000000000000000007bffffffffffffffffffffffffffffffffffffffffffffffffffffffff1916827bffffffffffffffffffffffffffffffffffffffffffffffffffffffff1916145b8061046f575061046e826110e6565b5b9050919050565b600061048a6104856007611150565b61115e565b6104946007611150565b905090565b6060600080546104a89061365e565b80601f01602080910402602001604051908101604052809291908181526020018280546104d49061365e565b80156105215780601f106104f657610100808354040283529160200191610521565b820191906000526020600020905b81548152906001019060200180831161050457829003601f168201915b5050505050905090565b6000610536826111f7565b610575576040517f08c379a000000000000000000000000000000000000000000000000000000000815260040161056c9061327c565b60405180910390fd5b6004600083815260200190815260200160002060009054906101000a900473ffffffffffffffffffffffffffffffffffffffff169050919050565b60006105bb82610aaf565b90508073ffffffffffffffffffffffffffffffffffffffff168373ffffffffffffffffffffffffffffffffffffffff16141561062c576040517f08c379a0000000000000000000000000000000000000000000000000000000008152600401610623906132dc565b60405180910390fd5b8073ffffffffffffffffffffffffffffffffffffffff1661064b611263565b73ffffffffffffffffffffffffffffffffffffffff16148061067a575061067981610674611263565b610fb9565b5b6106b9576040517f08c379a00000000000000000000000000000000000000000000000000000000081526004016106b0906131bc565b60405180910390fd5b6106c3838361126b565b505050565b6106d96106d3611263565b82611324565b610718576040517f08c379a000000000000000000000000000000000000000000000000000000000815260040161070f906132fc565b60405180910390fd5b610723838383611402565b505050565b6009602052816000526040600020818154811061074457600080fd5b9060005260206000209060030201600091509150508060000154908060010154908060020180546107749061365e565b80601f01602080910402602001604051908101604052809291908181526020018280546107a09061365e565b80156107ed5780601f106107c2576101008083540402835291602001916107ed565b820191906000526020600020905b8154815290600101906020018083116107d057829003601f168201915b5050505050905083565b60006108036007611150565b905060006040518060400160405280600a81526020017f446f6f646c65204e4654000000000000000000000000000000000000000000008152509050600061086b8285604051602001610857929190612f88565b60405160208183030381529060405261165e565b90506000816040516020016108809190612fcd565b60405160208183030381529060405290506108cf6040518060400160405280601581526020017f0a2d2d2d2d2d2d2d2d2d2d2d2d2d2d2d2d2d2d2d2d000000000000000000000081525061104d565b6108f7816040516020016108e39190612f66565b60405160208183030381529060405261104d565b6109356040518060400160405280601581526020017f2d2d2d2d2d2d2d2d2d2d2d2d2d2d2d2d2d2d2d2d0a000000000000000000000081525061104d565b60006040518060600160405280428152602001868152602001838152509050600960003373ffffffffffffffffffffffffffffffffffffffff1673ffffffffffffffffffffffffffffffffffffffff168152602001908152602001600020819080600181540180825580915050600190039060005260206000209060030201600090919091909150600082015181600001556020820151816001015560408201518160020190805190602001906109ed929190612198565b5050506109fa338661181c565b610a04858361183a565b610a446040518060400160405280600f81526020017f2573206d696e746564206279202573000000000000000000000000000000000081525086336118ae565b610a4e600761194d565b7febb98688741ffa4c7589bf325de30cf7becb63de567842e1ccdb6cb949fdc82c3386604051610a7f929190613056565b60405180910390a1505050505050565b610aaa83838360405180602001604052806000815250610e05565b505050565b6000806002600084815260200190815260200160002060009054906101000a900473ffffffffffffffffffffffffffffffffffffffff169050600073ffffffffffffffffffffffffffffffffffffffff168173ffffffffffffffffffffffffffffffffffffffff161415610b58576040517f08c379a0000000000000000000000000000000000000000000000000000000008152600401610b4f906131fc565b60405180910390fd5b80915050919050565b6060600960008373ffffffffffffffffffffffffffffffffffffffff1673ffffffffffffffffffffffffffffffffffffffff168152602001908152602001600020805480602002602001604051908101604052809291908181526020016000905b82821015610c9a57838290600052602060002090600302016040518060600160405290816000820154815260200160018201548152602001600282018054610c099061365e565b80601f0160208091040260200160405190810160405280929190818152602001828054610c359061365e565b8015610c825780601f10610c5757610100808354040283529160200191610c82565b820191906000526020600020905b815481529060010190602001808311610c6557829003601f168201915b50505050508152505081526020019060010190610bc2565b505050509050919050565b60008073ffffffffffffffffffffffffffffffffffffffff168273ffffffffffffffffffffffffffffffffffffffff161415610d16576040517f08c379a0000000000000000000000000000000000000000000000000000000008152600401610d0d906131dc565b60405180910390fd5b600360008373ffffffffffffffffffffffffffffffffffffffff1673ffffffffffffffffffffffffffffffffffffffff168152602001908152602001600020549050919050565b606060018054610d6c9061365e565b80601f0160208091040260200160405190810160405280929190818152602001828054610d989061365e565b8015610de55780601f10610dba57610100808354040283529160200191610de5565b820191906000526020600020905b815481529060010190602001808311610dc857829003601f168201915b5050505050905090565b610e01610dfa611263565b8383611963565b5050565b610e16610e10611263565b83611324565b610e55576040517f08c379a0000000000000000000000000000000000000000000000000000000008152600401610e4c906132fc565b60405180910390fd5b610e6184848484611ad0565b50505050565b6060610e72826111f7565b610eb1576040517f08c379a0000000000000000000000000000000000000000000000000000000008152600401610ea89061325c565b60405180910390fd5b6000600660008481526020019081526020016000208054610ed19061365e565b80601f0160208091040260200160405190810160405280929190818152602001828054610efd9061365e565b8015610f4a5780601f10610f1f57610100808354040283529160200191610f4a565b820191906000526020600020905b815481529060010190602001808311610f2d57829003601f168201915b505050505090506000610f5b611b2c565b9050600081511415610f71578192505050610fb4565b600082511115610fa6578082604051602001610f8e929190612f42565b60405160208183030381529060405292505050610fb4565b610faf84611b43565b925050505b919050565b6000600560008473ffffffffffffffffffffffffffffffffffffffff1673ffffffffffffffffffffffffffffffffffffffff16815260200190815260200160002060008373ffffffffffffffffffffffffffffffffffffffff1673ffffffffffffffffffffffffffffffffffffffff16815260200190815260200160002060009054906101000a900460ff16905092915050565b6110e38160405160240161106191906130bc565b6040516020818303038152906040527f41304fac000000000000000000000000000000000000000000000000000000007bffffffffffffffffffffffffffffffffffffffffffffffffffffffff19166020820180517bffffffffffffffffffffffffffffffffffffffffffffffffffffffff8381831617835250505050611bea565b50565b60007f01ffc9a7000000000000000000000000000000000000000000000000000000007bffffffffffffffffffffffffffffffffffffffffffffffffffffffff1916827bffffffffffffffffffffffffffffffffffffffffffffffffffffffff1916149050919050565b600081600001549050919050565b6111f481604051602401611172919061331c565b6040516020818303038152906040527ff5b1bba9000000000000000000000000000000000000000000000000000000007bffffffffffffffffffffffffffffffffffffffffffffffffffffffff19166020820180517bffffffffffffffffffffffffffffffffffffffffffffffffffffffff8381831617835250505050611bea565b50565b60008073ffffffffffffffffffffffffffffffffffffffff166002600084815260200190815260200160002060009054906101000a900473ffffffffffffffffffffffffffffffffffffffff1673ffffffffffffffffffffffffffffffffffffffff1614159050919050565b600033905090565b816004600083815260200190815260200160002060006101000a81548173ffffffffffffffffffffffffffffffffffffffff021916908373ffffffffffffffffffffffffffffffffffffffff160217905550808273ffffffffffffffffffffffffffffffffffffffff166112de83610aaf565b73ffffffffffffffffffffffffffffffffffffffff167f8c5be1e5ebec7d5bd14f71427d1e84f3dd0314c0f7b2291e5b200ac8c7c3b92560405160405180910390a45050565b600061132f826111f7565b61136e576040517f08c379a00000000000000000000000000000000000000000000000000000000081526004016113659061319c565b60405180910390fd5b600061137983610aaf565b90508073ffffffffffffffffffffffffffffffffffffffff168473ffffffffffffffffffffffffffffffffffffffff1614806113e857508373ffffffffffffffffffffffffffffffffffffffff166113d08461052b565b73ffffffffffffffffffffffffffffffffffffffff16145b806113f957506113f88185610fb9565b5b91505092915050565b8273ffffffffffffffffffffffffffffffffffffffff1661142282610aaf565b73ffffffffffffffffffffffffffffffffffffffff1614611478576040517f08c379a000000000000000000000000000000000000000000000000000000000815260040161146f9061329c565b60405180910390fd5b600073ffffffffffffffffffffffffffffffffffffffff168273ffffffffffffffffffffffffffffffffffffffff1614156114e8576040517f08c379a00000000000000000000000000000000000000000000000000000000081526004016114df9061315c565b60405180910390fd5b6114f3838383611c13565b6114fe60008261126b565b6001600360008573ffffffffffffffffffffffffffffffffffffffff1673ffffffffffffffffffffffffffffffffffffffff168152602001908152602001600020600082825461154e9190613574565b925050819055506001600360008473ffffffffffffffffffffffffffffffffffffffff1673ffffffffffffffffffffffffffffffffffffffff16815260200190815260200160002060008282546115a59190613493565b92505081905550816002600083815260200190815260200160002060006101000a81548173ffffffffffffffffffffffffffffffffffffffff021916908373ffffffffffffffffffffffffffffffffffffffff160217905550808273ffffffffffffffffffffffffffffffffffffffff168473ffffffffffffffffffffffffffffffffffffffff167fddf252ad1be2c89b69c2b068fc378daa952ba7f163c4a11628f55a4df523b3ef60405160405180910390a4505050565b606060008251905060008114156116875760405180602001604052806000815250915050611817565b600060036002836116989190613493565b6116a291906134e9565b60046116ae919061351a565b905060006020826116bf9190613493565b67ffffffffffffffff8111156116fe577f4e487b7100000000000000000000000000000000000000000000000000000000600052604160045260246000fd5b6040519080825280601f01601f1916602001820160405280156117305781602001600182028036833780820191505090505b5090506000604051806060016040528060408152602001613834604091399050600181016020830160005b868110156117d45760038101905062ffffff818a015116603f8160121c168401518060081b905060ff603f83600c1c1686015116810190508060081b905060ff603f8360061c1686015116810190508060081b905060ff603f831686015116810190508060e01b9050808452600484019350505061175b565b5060038606600181146117ee57600281146117fe57611809565b613d3d60f01b6002830352611809565b603d60f81b60018303525b508484525050819450505050505b919050565b611836828260405180602001604052806000815250611c18565b5050565b611843826111f7565b611882576040517f08c379a00000000000000000000000000000000000000000000000000000000081526004016118799061321c565b60405180910390fd5b806006600084815260200190815260200160002090805190602001906118a9929190612198565b505050565b6119488383836040516024016118c6939291906130de565b6040516020818303038152906040527fe3849f79000000000000000000000000000000000000000000000000000000007bffffffffffffffffffffffffffffffffffffffffffffffffffffffff19166020820180517bffffffffffffffffffffffffffffffffffffffffffffffffffffffff8381831617835250505050611bea565b505050565b6001816000016000828254019250508190555050565b8173ffffffffffffffffffffffffffffffffffffffff168373ffffffffffffffffffffffffffffffffffffffff1614156119d2576040517f08c379a00000000000000000000000000000000000000000000000000000000081526004016119c99061317c565b60405180910390fd5b80600560008573ffffffffffffffffffffffffffffffffffffffff1673ffffffffffffffffffffffffffffffffffffffff16815260200190815260200160002060008473ffffffffffffffffffffffffffffffffffffffff1673ffffffffffffffffffffffffffffffffffffffff16815260200190815260200160002060006101000a81548160ff0219169083151502179055508173ffffffffffffffffffffffffffffffffffffffff168373ffffffffffffffffffffffffffffffffffffffff167f17307eab39ab6107e8899845ad3d59bd9653f200f220920489ca2b5937696c3183604051611ac391906130a1565b60405180910390a3505050565b611adb848484611402565b611ae784848484611c73565b611b26576040517f08c379a0000000000000000000000000000000000000000000000000000000008152600401611b1d9061311c565b60405180910390fd5b50505050565b606060405180602001604052806000815250905090565b6060611b4e826111f7565b611b8d576040517f08c379a0000000000000000000000000000000000000000000000000000000008152600401611b84906132bc565b60405180910390fd5b6000611b97611b2c565b90506000815111611bb75760405180602001604052806000815250611be2565b80611bc184611e0a565b604051602001611bd2929190612f42565b6040516020818303038152906040525b915050919050565b60008151905060006a636f6e736f6c652e6c6f679050602083016000808483855afa5050505050565b505050565b611c228383611fb7565b611c2f6000848484611c73565b611c6e576040517f08c379a0000000000000000000000000000000000000000000000000000000008152600401611c659061311c565b60405180910390fd5b505050565b6000611c948473ffffffffffffffffffffffffffffffffffffffff16612185565b15611dfd578373ffffffffffffffffffffffffffffffffffffffff1663150b7a02611cbd611263565b8786866040518563ffffffff1660e01b8152600401611cdf949392919061300a565b602060405180830381600087803b158015611cf957600080fd5b505af1925050508015611d2a57506040513d601f19601f82011682018060405250810190611d279190612544565b60015b611dad573d8060008114611d5a576040519150601f19603f3d011682016040523d82523d6000602084013e611d5f565b606091505b50600081511415611da5576040517f08c379a0000000000000000000000000000000000000000000000000000000008152600401611d9c9061311c565b60405180910390fd5b805181602001fd5b63150b7a0260e01b7bffffffffffffffffffffffffffffffffffffffffffffffffffffffff1916817bffffffffffffffffffffffffffffffffffffffffffffffffffffffff191614915050611e02565b600190505b949350505050565b60606000821415611e52576040518060400160405280600181526020017f30000000000000000000000000000000000000000000000000000000000000008152509050611fb2565b600082905060005b60008214611e84578080611e6d90613690565b915050600a82611e7d91906134e9565b9150611e5a565b60008167ffffffffffffffff811115611ec6577f4e487b7100000000000000000000000000000000000000000000000000000000600052604160045260246000fd5b6040519080825280601f01601f191660200182016040528015611ef85781602001600182028036833780820191505090505b5090505b60008514611fab57600182611f119190613574565b9150600a85611f2091906136d9565b6030611f2c9190613493565b60f81b818381518110611f68577f4e487b7100000000000000000000000000000000000000000000000000000000600052603260045260246000fd5b60200101907effffffffffffffffffffffffffffffffffffffffffffffffffffffffffffff1916908160001a905350600a85611fa491906134e9565b9450611efc565b8093505050505b919050565b600073ffffffffffffffffffffffffffffffffffffffff168273ffffffffffffffffffffffffffffffffffffffff161415612027576040517f08c379a000000000000000000000000000000000000000000000000000000000815260040161201e9061323c565b60405180910390fd5b612030816111f7565b15612070576040517f08c379a00000000000000000000000000000000000000000000000000000000081526004016120679061313c565b60405180910390fd5b61207c60008383611c13565b6001600360008473ffffffffffffffffffffffffffffffffffffffff1673ffffffffffffffffffffffffffffffffffffffff16815260200190815260200160002060008282546120cc9190613493565b92505081905550816002600083815260200190815260200160002060006101000a81548173ffffffffffffffffffffffffffffffffffffffff021916908373ffffffffffffffffffffffffffffffffffffffff160217905550808273ffffffffffffffffffffffffffffffffffffffff16600073ffffffffffffffffffffffffffffffffffffffff167fddf252ad1be2c89b69c2b068fc378daa952ba7f163c4a11628f55a4df523b3ef60405160405180910390a45050565b600080823b905060008111915050919050565b8280546121a49061365e565b90600052602060002090601f0160209004810192826121c6576000855561220d565b82601f106121df57805160ff191683800117855561220d565b8280016001018555821561220d579182015b8281111561220c5782518255916020019190600101906121f1565b5b50905061221a919061221e565b5090565b5b8082111561223757600081600090555060010161221f565b5090565b600061224e612249846133a6565b613375565b90508281526020810184848401111561226657600080fd5b61227184828561361c565b509392505050565b600061228c612287846133d6565b613375565b9050828152602081018484840111156122a457600080fd5b6122af84828561361c565b509392505050565b6000813590506122c6816137d7565b92915050565b6000813590506122db816137ee565b92915050565b6000813590506122f081613805565b92915050565b60008151905061230581613805565b92915050565b600082601f83011261231c57600080fd5b813561232c84826020860161223b565b91505092915050565b600082601f83011261234657600080fd5b8135612356848260208601612279565b91505092915050565b60008135905061236e8161381c565b92915050565b60006020828403121561238657600080fd5b6000612394848285016122b7565b91505092915050565b600080604083850312156123b057600080fd5b60006123be858286016122b7565b92505060206123cf858286016122b7565b9150509250929050565b6000806000606084860312156123ee57600080fd5b60006123fc868287016122b7565b935050602061240d868287016122b7565b925050604061241e8682870161235f565b9150509250925092565b6000806000806080858703121561243e57600080fd5b600061244c878288016122b7565b945050602061245d878288016122b7565b935050604061246e8782880161235f565b925050606085013567ffffffffffffffff81111561248b57600080fd5b6124978782880161230b565b91505092959194509250565b600080604083850312156124b657600080fd5b60006124c4858286016122b7565b92505060206124d5858286016122cc565b9150509250929050565b600080604083850312156124f257600080fd5b6000612500858286016122b7565b92505060206125118582860161235f565b9150509250929050565b60006020828403121561252d57600080fd5b600061253b848285016122e1565b91505092915050565b60006020828403121561255657600080fd5b6000612564848285016122f6565b91505092915050565b60006020828403121561257f57600080fd5b600082013567ffffffffffffffff81111561259957600080fd5b6125a584828501612335565b91505092915050565b6000602082840312156125c057600080fd5b60006125ce8482850161235f565b91505092915050565b60006125e38383612ed4565b905092915050565b6125f4816135a8565b82525050565b600061260582613416565b61260f8185613444565b93508360208202850161262185613406565b8060005b8581101561265d578484038952815161263e85826125d7565b945061264983613437565b925060208a01995050600181019050612625565b50829750879550505050505092915050565b612678816135ba565b82525050565b600061268982613421565b6126938185613455565b93506126a381856020860161362b565b6126ac816137c6565b840191505092915050565b60006126c28261342c565b6126cc8185613466565b93506126dc81856020860161362b565b6126e5816137c6565b840191505092915050565b60006126fb8261342c565b6127058185613477565b935061271581856020860161362b565b61271e816137c6565b840191505092915050565b60006127348261342c565b61273e8185613488565b935061274e81856020860161362b565b80840191505092915050565b6000612767602583613488565b91507f68747470733a2f2f6e6674707265766965772e30786465762e636f6465732f3f60008301527f636f64653d0000000000000000000000000000000000000000000000000000006020830152602582019050919050565b60006127cd603283613477565b91507f4552433732313a207472616e7366657220746f206e6f6e20455243373231526560008301527f63656976657220696d706c656d656e74657200000000000000000000000000006020830152604082019050919050565b6000612833601c83613477565b91507f4552433732313a20746f6b656e20616c7265616479206d696e746564000000006000830152602082019050919050565b6000612873602483613477565b91507f4552433732313a207472616e7366657220746f20746865207a65726f2061646460008301527f72657373000000000000000000000000000000000000000000000000000000006020830152604082019050919050565b60006128d9601983613477565b91507f4552433732313a20617070726f766520746f2063616c6c6572000000000000006000830152602082019050919050565b6000612919602c83613477565b91507f4552433732313a206f70657261746f7220717565727920666f72206e6f6e657860008301527f697374656e7420746f6b656e00000000000000000000000000000000000000006020830152604082019050919050565b600061297f603883613477565b91507f4552433732313a20617070726f76652063616c6c6572206973206e6f74206f7760008301527f6e6572206e6f7220617070726f76656420666f7220616c6c00000000000000006020830152604082019050919050565b60006129e5602a83613477565b91507f4552433732313a2062616c616e636520717565727920666f7220746865207a6560008301527f726f2061646472657373000000000000000000000000000000000000000000006020830152604082019050919050565b6000612a4b602983613477565b91507f4552433732313a206f776e657220717565727920666f72206e6f6e657869737460008301527f656e7420746f6b656e00000000000000000000000000000000000000000000006020830152604082019050919050565b6000612ab1602e83613477565b91507f45524337323155524953746f726167653a2055524920736574206f66206e6f6e60008301527f6578697374656e7420746f6b656e0000000000000000000000000000000000006020830152604082019050919050565b6000612b17600283613488565b91507f227d0000000000000000000000000000000000000000000000000000000000006000830152600282019050919050565b6000612b57602083613477565b91507f4552433732313a206d696e7420746f20746865207a65726f20616464726573736000830152602082019050919050565b6000612b97603183613477565b91507f45524337323155524953746f726167653a2055524920717565727920666f722060008301527f6e6f6e6578697374656e7420746f6b656e0000000000000000000000000000006020830152604082019050919050565b6000612bfd602c83613477565b91507f4552433732313a20617070726f76656420717565727920666f72206e6f6e657860008301527f697374656e7420746f6b656e00000000000000000000000000000000000000006020830152604082019050919050565b6000612c63603c83613488565b91507f222c20226465736372697074696f6e223a20224e46542063726561746564207760008301527f69746820444f4f444c45204e46542e222c2022696d616765223a2022000000006020830152603c82019050919050565b6000612cc9602983613477565b91507f4552433732313a207472616e73666572206f6620746f6b656e2074686174206960008301527f73206e6f74206f776e00000000000000000000000000000000000000000000006020830152604082019050919050565b6000612d2f602f83613477565b91507f4552433732314d657461646174613a2055524920717565727920666f72206e6f60008301527f6e6578697374656e7420746f6b656e00000000000000000000000000000000006020830152604082019050919050565b6000612d95600a83613488565b91507f7b226e616d65223a2022000000000000000000000000000000000000000000006000830152600a82019050919050565b6000612dd5602183613477565b91507f4552433732313a20617070726f76616c20746f2063757272656e74206f776e6560008301527f72000000000000000000000000000000000000000000000000000000000000006020830152604082019050919050565b6000612e3b601d83613488565b91507f646174613a6170706c69636174696f6e2f6a736f6e3b6261736536342c0000006000830152601d82019050919050565b6000612e7b603183613477565b91507f4552433732313a207472616e736665722063616c6c6572206973206e6f74206f60008301527f776e6572206e6f7220617070726f7665640000000000000000000000000000006020830152604082019050919050565b6000606083016000830151612eec6000860182612f24565b506020830151612eff6020860182612f24565b5060408301518482036040860152612f1782826126b7565b9150508091505092915050565b612f2d81613612565b82525050565b612f3c81613612565b82525050565b6000612f4e8285612729565b9150612f5a8284612729565b91508190509392505050565b6000612f718261275a565b9150612f7d8284612729565b915081905092915050565b6000612f9382612d88565b9150612f9f8285612729565b9150612faa82612c56565b9150612fb68284612729565b9150612fc182612b0a565b91508190509392505050565b6000612fd882612e2e565b9150612fe48284612729565b915081905092915050565b600060208201905061300460008301846125eb565b92915050565b600060808201905061301f60008301876125eb565b61302c60208301866125eb565b6130396040830185612f33565b818103606083015261304b818461267e565b905095945050505050565b600060408201905061306b60008301856125eb565b6130786020830184612f33565b9392505050565b6000602082019050818103600083015261309981846125fa565b905092915050565b60006020820190506130b6600083018461266f565b92915050565b600060208201905081810360008301526130d681846126f0565b905092915050565b600060608201905081810360008301526130f881866126f0565b90506131076020830185612f33565b61311460408301846125eb565b949350505050565b60006020820190508181036000830152613135816127c0565b9050919050565b6000602082019050818103600083015261315581612826565b9050919050565b6000602082019050818103600083015261317581612866565b9050919050565b60006020820190508181036000830152613195816128cc565b9050919050565b600060208201905081810360008301526131b58161290c565b9050919050565b600060208201905081810360008301526131d581612972565b9050919050565b600060208201905081810360008301526131f5816129d8565b9050919050565b6000602082019050818103600083015261321581612a3e565b9050919050565b6000602082019050818103600083015261323581612aa4565b9050919050565b6000602082019050818103600083015261325581612b4a565b9050919050565b6000602082019050818103600083015261327581612b8a565b9050919050565b6000602082019050818103600083015261329581612bf0565b9050919050565b600060208201905081810360008301526132b581612cbc565b9050919050565b600060208201905081810360008301526132d581612d22565b9050919050565b600060208201905081810360008301526132f581612dc8565b9050919050565b6000602082019050818103600083015261331581612e6e565b9050919050565b60006020820190506133316000830184612f33565b92915050565b600060608201905061334c6000830186612f33565b6133596020830185612f33565b818103604083015261336b81846126f0565b9050949350505050565b6000604051905081810181811067ffffffffffffffff8211171561339c5761339b613797565b5b8060405250919050565b600067ffffffffffffffff8211156133c1576133c0613797565b5b601f19601f8301169050602081019050919050565b600067ffffffffffffffff8211156133f1576133f0613797565b5b601f19601f8301169050602081019050919050565b6000819050602082019050919050565b600081519050919050565b600081519050919050565b600081519050919050565b6000602082019050919050565b600082825260208201905092915050565b600082825260208201905092915050565b600082825260208201905092915050565b600082825260208201905092915050565b600081905092915050565b600061349e82613612565b91506134a983613612565b9250827fffffffffffffffffffffffffffffffffffffffffffffffffffffffffffffffff038211156134de576134dd61370a565b5b828201905092915050565b60006134f482613612565b91506134ff83613612565b92508261350f5761350e613739565b5b828204905092915050565b600061352582613612565b915061353083613612565b9250817fffffffffffffffffffffffffffffffffffffffffffffffffffffffffffffffff04831182151516156135695761356861370a565b5b828202905092915050565b600061357f82613612565b915061358a83613612565b92508282101561359d5761359c61370a565b5b828203905092915050565b60006135b3826135f2565b9050919050565b60008115159050919050565b60007fffffffff0000000000000000000000000000000000000000000000000000000082169050919050565b600073ffffffffffffffffffffffffffffffffffffffff82169050919050565b6000819050919050565b82818337600083830152505050565b60005b8381101561364957808201518184015260208101905061362e565b83811115613658576000848401525b50505050565b6000600282049050600182168061367657607f821691505b6020821081141561368a57613689613768565b5b50919050565b600061369b82613612565b91507fffffffffffffffffffffffffffffffffffffffffffffffffffffffffffffffff8214156136ce576136cd61370a565b5b600182019050919050565b60006136e482613612565b91506136ef83613612565b9250826136ff576136fe613739565b5b828206905092915050565b7f4e487b7100000000000000000000000000000000000000000000000000000000600052601160045260246000fd5b7f4e487b7100000000000000000000000000000000000000000000000000000000600052601260045260246000fd5b7f4e487b7100000000000000000000000000000000000000000000000000000000600052602260045260246000fd5b7f4e487b7100000000000000000000000000000000000000000000000000000000600052604160045260246000fd5b6000601f19601f8301169050919050565b6137e0816135a8565b81146137eb57600080fd5b50565b6137f7816135ba565b811461380257600080fd5b50565b61380e816135c6565b811461381957600080fd5b50565b61382581613612565b811461383057600080fd5b5056fe4142434445464748494a4b4c4d4e4f505152535455565758595a6162636465666768696a6b6c6d6e6f707172737475767778797a303132333435363738392b2fa2646970667358221220db030b1bd02abd7baa3ea81a521cd53195757882c6a6d92474fd199e7d2c163d64736f6c63430008000033",
  "linkReferences": {},
  "deployedLinkReferences": {}
}